:020000040800F2
:10000000D005002029020008370200083902000844
:100010003B0200083D0200083F020008000000000B
:100020000000000000000000000000004102000885
:1000300043020008000000004502000847020008D3
:100040004902000849020008490200084902000864
:100050004902000849020008490200084902000854
:1000600049020008B50300084902000849020008D7
:100070004902000849020008490200084902000834
:100080004902000849020008490200084902000824
:100090004902000849020008490200084902000814
:1000A0004902000849020008490200084902000804
:1000B00049020008490200084902000849020008F4
:1000C00049020008490200084902000849020008E4
:1000D00049020008350E00084902000849020008DC
:1000E00049020008490200084902000849020008C4
:1000F00049020008490200084902000849020008B4
:1001000049020008490200084902000849020008A3
:100110004902000849020008490200084902000893
:100120004902000849020008490200084902000883
:100130004902000849020008490200084902000873
:100140004902000849020008490200084902000863
:100150004902000849020008490200084902000853
:100160004902000849020008490200084902000843
:100170004902000849020008490200084902000833
:10018000490200084902000800F002F800F03CF8BB
:100190000AA090E8000C82448344AAF10107DA45E2
:1001A00001D100F031F8AFF2090EBAE80F0013F0F8
:1001B000010F18BFFB1A43F0010318471014000089
:1001C00030140000103A24BF78C878C1FAD852071A
:1001D00024BF30C830C144BF04680C6070470000C1
:1001E0000023002400250026103A28BF78C1FBD840
:1001F000520728BF30C148BF0B6070471FB501F0E0
:10020000DFF91FBD10B510BD00F035F81146FFF73E
:10021000F5FF01F019F900F053F803B4FFF7F2FF0E
:1002200003BC01F0B3F800000B48016841F4700111
:1002300001600A480047FEE7FEE7FEE7FEE7FEE74B
:10024000FEE7FEE7FEE7FEE7FEE70000044805499B
:10025000034A054B7047000088ED00E08901000863
:10026000D0010020D0050020D00100207047704749
:10027000704770477047754600F028F8AE46050095
:100280006946534620F00700854618B020B5FFF7B1
:10029000DDFFBDE820404FF000064FF000074FF0B3
:1002A00000084FF0000B21F00701AC46ACE8C00994
:1002B000ACE8C009ACE8C009ACE8C0098D4670479D
:1002C0000446AFF300802046FFF7A7FF00487047C1
:1002D0006C010020002106E0002200E0521CB2F573
:1002E0007A6FFBD3491C8142F6D3704738B530484A
:1002F0000078401CC0B28DF800002D484078401CAA
:10030000C0B28DF801002A488078401CC0B28DF838
:1003100002002748C078401CC0B28DF803006A462E
:100320000C21002000F0DEFF01220021084600F031
:1003300095FF01221146002000F090FF052001F0FA
:1003400049F80321002000F0ADFA132806D010224E
:100350000121002000F082FF002038BD042201218D
:10036000002000F07BFF00BF00240221002000F0ED
:1003700099FA044624B122460221002000F06EFFC3
:10038000052001F027F804F00800082801D100201A
:10039000E3E70621002000F085FAFF2806D01022AE
:1003A0000121002000F05AFFFF20D6E7DCE7000023
:1003B0005400002000B508480078401C0649087029
:1003C0000846007800F082FD0448006840F008000C
:1003D0000249086000BD000002000020143C0140FA
:1003E00030B5CC1000F1200353F824304C07E50E53
:1003F0000F24AC40A343CD1000F1200444F8253075
:10040000CC1000F1200353F824304C07E40E02FA1C
:1004100004F42343CD1000F1200444F8253030BD0E
:100420002DE9F0470C46DDE90867002100258C46E0
:1004300000BF60E04FF0010808FA01F504EA050C7E
:10044000AC4557D1D0F800804FEA410A4FF003097C
:1004500009FA0AF928EA0908C0F80080D0F80080F3
:100460004FEA410902FA09F948EA0908C0F8008090
:10047000012A01D0022A27D1D0F808804FEA410A88
:100480004FF0030909FA0AF928EA0908C0F80880B8
:10049000D0F808804FEA410906FA09F948EA090844
:1004A000C0F80880D0F804904FF0010808FA01F86D
:1004B00029EA0809C0F80490D0F8048003FA01F989
:1004C00048EA0908C0F80480D0F80C804FEA410AD5
:1004D0004FF0030909FA0AF928EA0908C0F80C8064
:1004E000D0F80C804FEA410907FA09F948EA0908EF
:1004F000C0F80C80491C10299CD3BDE8F08700008F
:10050000C02016490870A820487001208870C87063
:10051000FF2013490870487088700020C8700C20B4
:100520001049087029204870AB2088707C20C87062
:100530000020087101204871C0200B490870A820D4
:10054000487001208870C720C870132007490870C0
:100550008820487002200649087070474600002035
:100560004A0000204E0000205400002058000020C7
:10057000440000202DE9F0410746884614461D46F8
:10058000284600F035F8C5F1040007FA00F60F2000
:10059000284100EA0800064306F00F06E21704EBC4
:1005A000D26252114FF0E02303EB8202D2F8002115
:1005B0002146E31704EBD3635B11A4EB431C012337
:1005C00003FA0CF31A432046E31704EBD3635B11E1
:1005D0004FF0E02C0CEB8303C3F800210348005DCF
:1005E00040EA061001490855BDE8F08100E400E04A
:1005F0000146072323EA01021202054B18684FF651
:10060000FF031840034B18431043014B1860704719
:100610000CED00E00000FA054A0A52020243014BC9
:100620001A60704708ED00E00C48006840F00800D0
:100630000A4908600A48006820F0F000084908608C
:100640000846006840F0500008600548083000681F
:1006500040F0AA3002490831086070473038024043
:10066000000C02403748006840F01000354908602F
:100670003548006820F00F003349086008460068DC
:1006800040F0050008600846006820F0F0000860AF
:100690000846006840F0100008600846006820F432
:1006A000706008600846006840F480600860084692
:1006B000806840F0AA30886022481430006840F416
:1006C00080402049143108601F48C0681E49C86036
:1006D0004FF480401D4908601D48006840F0080044
:1006E0001B490860081D006840F00800091D0860EB
:1006F00017480C30006840F0080015490C310860BC
:100700001448154908601548007840F0E001134886
:1007100001701348006840F400704FF0E021C1F808
:1007200000010948406940F0010007494861084656
:10073000406940F0020048610846406940F02000EE
:1007400048617047303802400010024008380140CC
:10075000003C01400005AF050CED00E009E400E0BD
:1007600000E100E02DE9F04781460D46262148468C
:1007700000F0BAF8064616B90020BDE8F08740F24E
:10078000B450864200DD06462821484600F0ACF809
:100790000746BA46C7F30A07334840694FF6FE7169
:1007A000084031494861384600F0D8F9182101EB7A
:1007B0004911C8B200F0A2F9B819B0F5006F0CDA0F
:1007C000002407E000F072F9804685F800806D1C77
:1007D000601C84B2B442F5DB2FE0C7F5006087B23D
:1007E000002407E000F062F9804685F800806D1C67
:1007F000601C84B2BC42F5DB1B48406940F001003C
:1008000019494861084640694FF6FE71084016498B
:100810004861002000F0A2F9182101EB4911C8B28B
:1008200000F06CF907E000F041F9804685F800809F
:100830006D1C601C84B2B442F5DB0B48406940F08B
:100840000100094948610AEB06001FFA80FA524686
:100850002821484600F024FD40220121484600F0AE
:10086000FDFC304689E700000010024030B5044628
:100870000B4840694FF6FE7108400949486120461F
:1008800000F06CF9012000F039F900F00FF905468D
:100890000348406940F0010001494861284630BDE5
:1008A0000010024070B504460D460E4840694FF6F0
:1008B000FE7108400B494861284600F04FF90821B5
:1008C00001EB4411C9B241F0010000F017F900F04A
:1008D000EDF806460348406940F0010001494861CF
:1008E000304670BD0010024070B505460E461248F5
:1008F00040694FF6FE7108400F494861304600F0EC
:100900002DF9082101EB4511C9B241F0020000F0B8
:10091000F5F800F0CBF804464FF6FF7000EA042427
:1009200000F0C4F8204484B20348406940F001005C
:1009300001494861204670BD0010024070B506466E
:1009400012493046FFF70EFF05461048007810495F
:1009500008700E48407848700C48807888700B48C2
:10096000C078C870094800790A490870074840797A
:100970004870002405E0054904F10800085C0855AA
:10098000641CA5F10800A042F5D870BD300100201C
:10099000600000206400002000B5084840694FF660
:1009A000F7710840054948610A20FFF793FC0348A6
:1009B000406940F008000149486100BD0000024064
:1009C0003648006840F0010034490860334814306C
:1009D000006840F4805031491431086030480068A4
:1009E00020F47F402E4908600846006840F42A4001
:1009F00008600846806820F47F4088600846806868
:100A000040F42A4088600846006A80B208620846BE
:100A1000006A24490843224908620846006820F019
:100A20000C0008600846006840F0040008600846B2
:100A3000806820F00C0088600846806840F00B0059
:100A400088600846006820F03000086008460068AA
:100A500008600846006820F0C0000860084600688A
:100A600040F0400008600846806820F0C0008860C0
:100A70000846806840F080008860084640694FF66C
:100A8000F77108400649486144F21C300649088065
:100A90000846008840F04000088070473038024027
:100AA0000000024000005555003001400020124A6D
:100AB00052694FF6FD731A400F4B5A61002118E03E
:100AC0000D4A526942F002020B4B5A614206100E67
:100AD0001A46126902F01002102A01D140F00100FA
:100AE000054A52694FF6FD731A40034B5A614A1C7E
:100AF000D1B20829E4DB7047001002400146002013
:100B000020E0154A52694FF6FD731A40124B5A61A4
:100B100001FA00F212F0800F05D01A46526942F035
:100B200004025A6106E00C4A52694FF6FB731A4000
:100B3000094B5A61084A526942F00202064B5A6157
:100B4000421CD0B20828DCDB034A52694FF6FD7321
:100B50001A40014B5A6170470010024030B50446FC
:100B60002546E11704EB1161C1F30720FFF7C6FF2B
:100B7000E0B2FFF7C3FF30BD70B505460E46144620
:100B8000A2B23146284600F0A1FA70BD10B5044665
:100B900001220021204600F061FB0122114620467F
:100BA00000F05CFB052000F015FC03212046FFF758
:100BB00079FE132806D010220121204600F04EFBBA
:100BC000002010BD04220121204600F047FBFF2039
:100BD000F7E7000010B504461E221221002000F0A5
:100BE0005FFB082C17D2DFE804F0040F101112137A
:100BF00014150A484178007801EB002082B20421E4
:100C0000002000F04DFB07E006E005E004E003E013
:100C100002E001E000E000BF00BF10BD580000206E
:100C200010B5044601220021204600F017FB0122E6
:100C30001146204600F012FB052000F0CBFB0321FB
:100C40002046FFF72FFE132806D010220121204650
:100C500000F004FB002010BD02220121204600F01C
:100C6000FDFA052000F0B6FB03212046FFF71AFE2F
:100C7000142806D010220121204600F0EFFA0020AF
:100C8000E9E7FF20E7E710B50446022200212046ED
:100C900000F0E4FA01221146204600F0DFFA0520B8
:100CA00000F098FB03212046FFF7FCFD222806D028
:100CB00010220121204600F0D1FA002010BDFF20B3
:100CC000FCE70000F0B504460D4616461F461448E2
:100CD000006840F001001249086000201049083106
:100CE00008600F4800680F4908400D4908600E4829
:100CF000091D0860081F006820F48020091F086093
:100D0000002007490C3108603B4632462946204600
:100D100000F00CF800210846FFF77EFCF0BD000053
:100D200000380240FFFFF6FE10300024F0B5044604
:100D30000D46002100203C4E366846F480363A4F7E
:100D40003E6001E04E1CB1B2374E366816F4003FEB
:100D500003D141F6FF76B142F4DBA1F5F856FF3E30
:100D600001D101205FE0304E4036366846F08056B3
:100D70002D4F40373E602D4E366846F440462B4F8F
:100D80003E60294E0836366846F41446264F08372A
:100D90003E60254E366826F08076234F3E6045EA59
:100DA00084160127C7EB520746EA074646EA036660
:100DB00046F480061C4F3F1D3E603E1F366846F0DD
:100DC00080763F1F3E6000BF174E366816F0007FEA
:100DD000FAD0174E366846F48076154F3E603E4690
:100DE000366846F400763E603E46366846F48066D5
:100DF0003E603E46366846F005063E600A4E0836BE
:100E0000366826F00306084F08373E603E463668CF
:100E100046F002063E6000BF034E0836366806F014
:100E20000C06082EF8D1F0BD0038024000700040DA
:100E3000003C024010B52148008810F0200F3BD044
:100E40001E488088C4B2204600F040F8BC2C02D175
:100E500001201B4908701B48008810F4004F2BD15B
:100E60001848008810F4804F0CD00A2C03D00020C2
:100E70001449088020E01348008840F400401149DC
:100E8000088019E00D2C06D10E48008840F48040FF
:100E90000C49088010E00B480088C0F30D000A4997
:100EA0000C5408480088401C064908800846008801
:100EB000C72801DD0020088010BD0000001001409F
:100EC0000D0000203C0000206800002000BF064903
:100ED000098811F0400FFAD003498880098801F091
:100EE000DF01014A118070470010014010B50D4824
:100EF00040694FF6DF7108400A494861C82000F098
:100F000069FA0848406940F0200006494861C82055
:100F100000F060FA00BF2E20FFF7A8FC10F0010FD0
:100F2000F9D010BD0010024010B50024802100202F
:100F300000F05CF90A2000F04DFA04221649012065
:100F400000F000FA04221549052000F0FBF9062202
:100F50001349092000F0F6F9042212490F2000F08D
:100F6000F1F900BF0BE002221E21204600F076F9C5
:100F700002221F21204600F071F9601CC4B2082C27
:100F8000F1DB4FF4FA61192000F04CF908211B2025
:100F900000F02CF910BD0000460000204A0000209F
:100FA0004E0000205400002010B5FFF7BDFFFFF7F2
:100FB0009DF90020FFF70EFE10BD000030B500BF08
:100FC0001720FFF753FC054615F0010F3DD0022115
:100FD0000020FFF767FC044622460221002000F0B3
:100FE0003DF914F0010F05D01B48007840F00200D5
:100FF0001949087014F0020F0AD0102201210020B4
:1010000000F02CF90020FFF7E5FD002012490870E0
:1010100014F0100F05D01148007840F002000F497D
:10102000087014F0040F05D00C48007840F001005F
:101030000A49087014F0080F07D01022012100207F
:1010400000F00CF90020044908701720FFF70EFC8F
:1010500000B1B5E730BD000045000020660000206B
:1010600010B518480078F8B91748007860B9002022
:10107000FFF7D6FDFF2803D101201249087020E0B8
:101080000020104908701CE00F48007801280CD19E
:101090000020FFF77BFDFF2803D1012009490870DC
:1010A0000FE00020074908700BE00020FFF7EBFD80
:1010B000FF2803D103200349087002E00020014902
:1010C000087010BD45000020440000202DE9F043C9
:1010D00007460D46904600213846FFF7E3FB00F037
:1010E0000F0022280ED03E4A0C21384600F0FAF8B4
:1010F0003C484178007801EB002082B2102138464C
:1011000000F0CEF824213846FFF7EEFB0646B14644
:10111000C6F30A06344840694FF6FE71084032496A
:1011200048613046FFF71AFD102101EB4711C9B2A3
:1011300041F00400FFF7E2FC06EB0800B0F5006F99
:101140000ADA002405E015F8010BFFF7D7FC601C54
:1011500084B24445F7DB2DE0C6F5006086B200247A
:1011600005E015F8010BFFF7C9FC601C84B2B4421E
:10117000F7DB1D48406940F001001B494861084603
:1011800040694FF6FE710840174948610020FFF79B
:10119000E5FC102101EB4711C9B241F00400FFF753
:1011A000ADFC05E015F8010BFFF7A8FC601C84B24C
:1011B0004445F7DB0C48406940F001000A494861AA
:1011C00009EB08001FFA80F94A462421384600F04E
:1011D00067F820220121384600F040F8BDE8F0838E
:1011E00060000020640000200010024030B5054679
:1011F0000C460B4840694FF6FE71084008494861AB
:101200002846FFF7ABFC0520FFF778FC2046FFF7E8
:1012100075FC0348406940F001000149486130BD58
:101220000010024030B505460C460B4840694FF6A9
:10123000FE710840084948612846FFF78FFC0620E8
:10124000FFF75CFC2046FFF789FC0348406940F04B
:1012500001000149486130BD0010024070B50446EC
:101260000D4616460D4840694FF6FE7108400B4981
:1012700048612846FFF772FC082101EB4411C9B20E
:1012800041F00500FFF73AFC3046FFF737FC034812
:10129000406940F001000149486170BD0010024002
:1012A00070B504460D4616460D4840694FF6FE716E
:1012B00008400B4948612846FFF750FC082101EB24
:1012C0004411C9B241F00600FFF718FC3046FFF7A1
:1012D00045FC0348406940F001000149486170BD88
:1012E0000010024070B505460E4614461448406989
:1012F0004FF6FE710840124948613046FFF72EFC58
:10130000082101EB4511C9B241F00700FFF7F6FBD8
:1013100014F8010BFFF7F2FB14F8010BFFF7EEFBDB
:1013200014F8010BFFF7EAFB14F8010BFFF7E6FBDB
:101330000348406940F001000149486170BD000068
:1013400000100240F0B507460C4615460E484069AD
:101350004FF6FE7108400C4948613846FFF7FEFB26
:101360000420FFF7CBFB002605E014F8010BFFF784
:10137000C5FB701C86B2AE42F7DB0348406940F003
:10138000010001494861F0BD00100240014600BF64
:10139000704700004FF0E021096921F004014FF08F
:1013A000E0221161C21700EB5272C2F3C702074B71
:1013B0001A701946097801EB4102C2EBC1114FF6D0
:1013C000FF7202EAC101024A118070473800002012
:1013D0003A00002070B504464FF4077094FBF0F01B
:1013E000C6B24FF4077094FBF0F100FB114085B2D8
:1013F00005E04FF4077000F009F8701EC6B2002E29
:10140000F7D115B1284600F001F870BD01460D4A2C
:1014100012884A434FF0E0235A6100229A61012268
:101420001A6100BF4FF0E022106910F0010F02D0E6
:1014300010F4803FF6D000224FF0E0231A619A6149
:10144000704700003A0000200024072302220821F0
:101450004FF4A870FFF736FCA820FFF79BFF4FF46E
:10146000E131542000F02CF8FFF7AAFAFFF7DCF87E
:10147000FFF792FAFFF7F6F8FFF742F8FFF736FDAD
:10148000FFF792FD17E0FFF7EBFDFFF797FD0A4826
:10149000007810F0010F0ED00748007820F001000E
:1014A000054908700020FFF749FA0446224603491F
:1014B0000020FFF761FBE6E7660000203001002016
:1014C000F0B52DED028B83B005460E46384905FB7D
:1014D00001F000EE100AF8EE400A300100EE100AAA
:1014E000B8EE400A80EE801AB0EE418ABCEEC80A1F
:1014F00010EE100A84B200EE104AB8EE400A38EE40
:10150000400AF3EE000A20EE200ABCEEC00A10EEFC
:10151000107A4FF6FF7000EA0414E01984B22548EF
:10152000006840F001002349086022481430006838
:1015300040F010001F4914310860012002210023EF
:101540000A46CDE900104FF4C0611B48FEF768FF62
:10155000072209211848FEF743FF07220A211648EF
:10156000FEF73EFF15480481808920F400401349AE
:1015700088810846808940F0080088810846808973
:1015800040F0040088810846808940F0200088816E
:101590000223252203210846FEF7ECFF0748808935
:1015A00040F400500549888103B0BDEC028BF0BDCA
:1015B00040420F003038024000000240001001405D
:1015C0004FF04070E1EE100A70470000EC15000883
:1015D0000000002068000000C40100085416000844
:1015E0006800002068050000E0010008000100001C
:1015F000000400E02E00010A50000000000000007E
:1016000000000000000000000000000000000000DA
:1016100000000000000000000000000000000000CA
:1016200000000000000000000000000000000000BA
:1016300003000000000000000000000000000000A7
:10164000000000000000000000000000000000009A
:041650000000000096
:040000050800018965
:00000001FF
