:020000040800F2
:1000000038050020310200083F02000841020008C4
:1000100043020008450200084702000800000000F3
:10002000000000000000000000000000490200087D
:100030004B020008000000004D0200084F020008BB
:100040005102000851020008510200085102000844
:100050005102000851020008510200085102000834
:100060005102000851020008510200085102000824
:100070005102000851020008510200085102000814
:100080005102000851020008510200085102000804
:1000900051020008510200085102000851020008F4
:1000A00051020008510200085102000851020008E4
:1000B00051020008510200085102000851020008D4
:1000C00051020008510200085102000851020008C4
:1000D00051020008350800085102000851020008CA
:1000E00051020008510200085102000851020008A4
:1000F0005102000851020008510200085102000894
:100100005102000851020008510200085102000883
:100110005102000851020008510200085102000873
:100120005102000851020008510200085102000863
:100130005102000851020008510200085102000853
:100140005102000851020008510200085102000843
:100150005102000851020008510200085102000833
:100160005102000851020008510200085102000823
:100170005102000851020008510200085102000813
:10018000510200085102000800F002F800F041F8A6
:100190000AA090E8000C82448344AAF10107DA45E2
:1001A00001D100F036F8AFF2090EBAE80F0013F0F3
:1001B000010F18BFFB1A43F0010318470C09000098
:1001C0002C090000103A24BF78C878C1FAD8520729
:1001D00024BF30C830C144BF04680C6070470000C1
:1001E0000023002400250026103A28BF78C1FBD840
:1001F000520728BF30C148BF0B607047642900F028
:100200007D80002070471FB500F058FC1FBD10B561
:1002100010BD00F03DF91146FFF7F5FF00F0B0FB0F
:1002200000F05BF903B4FFF7F2FF03BC00F042FB00
:100230000B48016841F4700101600A480047FEE77D
:10024000FEE7FEE7FEE7FEE7FEE7FEE7FEE7FEE786
:10025000FEE7000004480549034A054B70470000CB
:1002600088ED00E0890100083801002038050020F1
:1002700038010020704700000FB4044910B503AAEC
:10028000029800F0D7F810BC5DF814FB08000020BD
:100290002DE9F04104460E4600200AE0E1682046C0
:1002A000884738B3252806D0D4E901219047206A31
:1002B000401C2062F2E7E1682046002788470500DD
:1002C00018D0A5F14100192802D820354FF4006755
:1002D0003246294620462760FFF790FF40B10128AB
:1002E00004D0F61D26F007060836D7E7361DD5E7F9
:1002F0002846D9E7206ABDE8F08100002DE9F041E9
:100300000746002510687529394616A411D0AFF3A9
:100310000080002803DAC0F1000013A407E0396868
:100320008A0701D511A402E0490704D510A40125CC
:1003300001E0AFF3008000210A2307F1240607E063
:10034000B0FBF3F203FB1200303070541046491C2E
:100350000028F5D12B4622463846BDE8F04100F092
:100360000DB80000000000002D0000002B00000070
:100370002000000070477047704770472DE9F04734
:100380000D4604469246994600F124080168880605
:1003900004D5E06921F01001216000E00120A842AD
:1003A00002DDA0EB050700E00027A16907EB0502CD
:1003B00002EB0900A1EB0000A0612068C00602D496
:1003C0002046AFF30080002608E0D4E901211AF8A6
:1003D00006009047206A401C761C20624E45F4DBE4
:1003E0002068C0060AD52046AFF3008006E0D4E9B5
:1003F000012130209047206A401C2062381EA7F15E
:100400000107F4DC07E0D4E9012118F80500904762
:10041000206A401C2062281EA5F10105F3DC20465D
:10042000AFF300802068000602D50220BDE8F08707
:100430000120FBE7074B70B50C467B4400F011F838
:100440000546204600F020F810B14FF0FF3070BD97
:10045000284670BD2B05000001694A1C026108781E
:10046000704700B58FB0CDE90131002105910549F4
:100470007944CDE9031011466846FFF709FF0FB034
:1004800000BD0000E5FFFFFFC06800F0800070477E
:10049000754600F029F8AE4605006946534620F03F
:1004A0000700854618B020B5FFF7D4FEBDE8204010
:1004B0004FF000064FF000074FF000084FF0000B20
:1004C00021F00701AC46ACE8C009ACE8C009ACE8D3
:1004D000C009ACE8C0098D4670470446AFF3008000
:1004E0002046FFF79FFE000000487047D400002020
:1004F00030B5CC1000F1200353F824304C07E50E42
:100500000F24AC40A343CD1000F1200444F8253063
:10051000CC1000F1200353F824304C07E40E02FA0B
:1005200004F42343CD1000F1200444F8253030BDFD
:100530002DE9F0470C46DDE90867002100258C46CF
:1005400000BF60E04FF0010808FA01F504EA050C6D
:10055000AC4557D1D0F800804FEA410A4FF003096B
:1005600009FA0AF928EA0908C0F80080D0F80080E2
:100570004FEA410902FA09F948EA0908C0F800807F
:10058000012A01D0022A27D1D0F808804FEA410A77
:100590004FF0030909FA0AF928EA0908C0F80880A7
:1005A000D0F808804FEA410906FA09F948EA090833
:1005B000C0F80880D0F804904FF0010808FA01F85C
:1005C00029EA0809C0F80490D0F8048003FA01F978
:1005D00048EA0908C0F80480D0F80C804FEA410AC4
:1005E0004FF0030909FA0AF928EA0908C0F80C8053
:1005F000D0F80C804FEA410907FA09F948EA0908DE
:10060000C0F80C80491C10299CD3BDE8F08700007D
:100610002DE9F0410746884614461D46284600F05D
:1006200035F8C5F1040007FA00F60F20284100EA6A
:100630000800064306F00F06E21704EBD2625211DF
:100640004FF0E02303EB8202D2F800212146E317AA
:1006500004EBD3635B11A4EB431C012303FA0CF3FB
:100660001A432046E31704EBD3635B114FF0E02CF1
:100670000CEB8303C3F800210348005D40EA061039
:1006800001490855BDE8F08100E400E00146072378
:1006900023EA01021202054B18684FF6FF031840C7
:1006A000034B18431043014B186070470CED00E0FA
:1006B0000000FA054A0A52020243014B1A607047D1
:1006C00008ED00E0F0B504460D4616461F461448F6
:1006D000006840F00100124908600020104908310C
:1006E00008600F4800680F4908400D4908600E482F
:1006F000091D0860081F006820F48020091F086099
:10070000002007490C3108603B4632462946204606
:1007100000F00CF800210846FFF7CCFFF0BD000008
:1007200000380240FFFFF6FE1030002470B584460A
:100730000C46002100203C4D2D6845F480353A4E92
:10074000356001E04D1CA9B2374D2D6815F4003F0E
:1007500003D141F6FF75A942F4DBA1F5F855FF3D41
:1007600001D101205FE0304D40352D6845F08055C6
:100770002D4E403635602D4D2D6845F440452B4EAD
:100780003560294D08352D6845F41445264E083648
:100790003560254D2D6825F08075234E356044EA7F
:1007A0008C150126C6EB520645EA064545EA036567
:1007B00045F480051C4E361D3560351F2D6845F00B
:1007C0008075361F356000BF174D2D6815F0007F0E
:1007D000FAD0174D2D6845F48075154E35603546B5
:1007E0002D6845F40075356035462D6845F4806503
:1007F000356035462D6845F0050535600A4D0835EC
:100800002D6825F00305084E0836356035462D68FD
:1008100045F00205356000BF034D08352D6805F031
:100820000C05082DF8D170BD003802400070004062
:10083000003C02401C49098811F0200F33D01A49AE
:100840008988C8B21949098811F4004F2BD117497A
:10085000098811F4804F0CD00A2803D00021134AD4
:10086000118020E01149098841F400410F4A1180AC
:1008700019E00D2806D10D49098841F480410B4A41
:10088000118010E009490988C1F30D01084A50544C
:1008900006490988491C054A118011460988C7295B
:1008A00001DD00211180704700100140040000208C
:1008B0000C000020014600BF704700004FF0E0210F
:1008C000096921F004014FF0E0221161C21700EB29
:1008D0005272D210054B1A70194609784FF47A7289
:1008E00011FB02F1024A1180704700000000002055
:1008F0000200002070B504464FF4077094FBF0F03E
:10090000C6B24FF4077094FBF0F100FB114085B2C2
:1009100005E04FF4077000F009F8701EC6B2002E13
:10092000F7D115B1284600F001F870BD01460D4A17
:1009300012884A434FF0E0235A6100229A61012253
:100940001A6100BF4FF0E022106910F0010F02D0D1
:1009500010F4803FF6D000224FF0E0231A619A6134
:10096000704700000200002000BF044A128812F005
:10097000400FFAD0C2B2014B9A807047001001407C
:1009800000240723022208214FF4A870FFF79AFEE3
:10099000A820FFF793FF4FF41651542000F010F8F1
:1009A00009E0214604A0FFF767FC4FF4FA60FFF767
:1009B000A1FF601CC4B2F4E7743A25640D0A00007C
:1009C000F0B52DED028B83B005460E46374905FB89
:1009D00001F000EE100AF8EE400A300100EE100AB5
:1009E000B8EE400A80EE801AB0EE418ABCEEC80A2A
:1009F00010EE100A84B200EE104AB8EE400A38EE4B
:100A0000400AF3EE000A20EE200ABCEEC00A10EE07
:100A1000107A2401E01984B22548006840F00100F2
:100A20002349086022481430006840F01000204933
:100A3000143108600120022100230A46CDE900108C
:100A40004FF4C0611B48FFF773FD072209211948C5
:100A5000FFF74EFD07220A211648FFF749FD164809
:100A60000481808920F400401349888108468089E8
:100A700040F0080088810846808940F004008881A1
:100A80000846808940F02000888102232522032126
:100A90000846FFF7BDFD0848808940F4005006492C
:100AA000888103B0BDEC028BF0BD000040420F0016
:100AB0003038024000000240001001404FF040700A
:100AC000E1EE100A70470000E80A0008000000206C
:100AD0000C000000C4010008F40A00080C0000200B
:100AE0002C050000E00100080000000000000000EC
:040AF0000000000002
:040000050800018965
:00000001FF
